:020000040800F2
:1000000000C000200D41000831030008350300083E
:10001000390300083D030008410300080000000008
:100020000000000000000000000000004503000880
:1000300049030008000000004D03000851030008B8
:100040005D4100085D4100085D4100085D41000818
:100050005D4100085D4100085D4100085D41000808
:100060005D4100085D4100085D4100085D410008F8
:100070005D4100085D4100085D4100085D410008E8
:100080005D4100085D4100085D4100085D410008D8
:100090005D4100085D4100085D4100085D410008C8
:1000A0005D4100085D4100085D4100085D410008B8
:1000B0005D41000800000000000000005D410008F4
:1000C0005D41000800000000000000005D410008E4
:1000D000000000005D4100085D41000800000000D4
:1000E0005D4100085D4100080000000000000000C4
:1000F0000000000000000000000000000000000000
:100100000000000000000000000000005D41000849
:1001100000000000000000005D4100085D41000893
:100120005D4100085D4100085D4100085D41000837
:100130005D41000800000000000000000000000019
:100140005D4100085D4100085D4100085D41000817
:100150005D4100085D4100085D4100085D41000807
:100160005D4100085D4100085D410008000000009D
:100170005D4100085D410008000000000000000033
:100180005D4100085D4100085D410008000000007D
:1001C00010B5054C237833B9044B13B10448AFF391
:1001D00000800123237010BDF00900200000000002
:1001E00094C1000808B5034B1BB103490348AFF3A2
:1001F000008008BD00000000F409002094C1000840
:10020000A3F5803A704700BF174B002B08BF134B74
:100210009D46FFF7F5FF00218B460F461348144A11
:10022000121A04F0A1FA0E4B002B00D098470D4B88
:10023000002B00D098470020002104000D000D483D
:10024000002802D00C4806F07DFC03F09FFF200040
:10025000290003F0FDFE03F089FF00BF0000080045
:10026000000000000000000000000000F009002075
:100270008C0A0020456B0008AD7F000810B50A4CC1
:1002800001222046082101F07FF84FF4617002F04E
:1002900059FB20460022082101F076F8BDE8104005
:1002A0004FF4967002F04EBB0004004810B50A4CA3
:1002B00001222046082101F067F84FF4967002F001
:1002C00041FB20460022082101F05EF8BDE8104005
:1002D0004FF4967002F036BB0004004808B505489C
:1002E0000022082101F050F8BDE808404FF4617089
:1002F00002F028BB000400480378C3B110B50446DF
:1003000004E0202B10D014F8013F4BB12D2B08D066
:100310002E2BF6D1FFF7CAFF14F8013F002BF5D1C1
:1003200010BDFFF7ABFFEEE7FFF7D8FFEBE7704735
:10033000704700BFFEE700BFFEE700BFFEE700BF5B
:10034000FEE700BF704700BF704700BF704700BFA7
:1003500002F0C8BA1149124BD1F8882042F4700259
:1003600010B4C1F888201A68002042F001021A6017
:1003700098601A6822F0A85222F410224FF4805498
:100380001A60DC601A684FF0006422F480221A6060
:1003900098618C605DF8044B704700BF00ED00E091
:1003A00000100240274B27481A682749120754BFFC
:1003B000D3F894301B68826854BFC3F30323C3F39C
:1003C000031302F00C02082A10B451F8233012D0A3
:1003D0000C2A12D01D48042A08BF0346194A1C489B
:1003E00092685DF8044BC2F30312114491F8302077
:1003F000D34003607047174BF0E7C468C26804F04D
:100400000300C2F30212022802F1010215D00328F0
:1004100010D1104BB3FBF2F30A4AD068D268C2F392
:1004200041620132C0F30620520003FB00F3B3FB2C
:10043000F2F3D3E7B3FBF2F3EEE7044BB3FBF2F3D3
:10044000EAE700BF00100240B0C100080024F40039
:100450000400002000127A00704700BF012070479E
:1004600008B503F07DFE162303604FF0FF3008BD92
:1004700008B503F075FE16230360FEE770B5161E7F
:1004800007DD0C468D19AFF3008004F8010BA5427F
:10049000F9D1304670BD00BF70B5161E07DD0C46A1
:1004A0008D1914F8010BAFF30080A542F9D1304645
:1004B00070BD00BF0C4A08B5136833B118446946D3
:1004C000884208D81060184608BD084B13601844CD
:1004D00069468842F6D903F043FE0C2303604FF0CF
:1004E000FF33184608BD00BF200A0020900A0020F4
:1004F0004FF0FF30704700BF4FF400534B600020B7
:10050000704700BF01207047002070470EB44FF0C5
:10051000FF3003B0704700BF08B503F021FE0A2387
:1005200003604FF0FF3008BD08B503F019FE022349
:1005300003604FF0FF3008BD4FF0FF30704700BF41
:100540004FF400534B600020704700BF08B503F024
:1005500007FE1F2303604FF0FF3008BD08B503F00E
:10056000FFFD0B2303604FF0FF3008BD08B503F01B
:10057000F7FD0C2303604FF0FF3008BD30B5204D70
:10058000AB6DDB0083B004461CD501F0F1FDB0F586
:10059000007F29D0802C13D82FD0A4F17004B4FA96
:1005A00084F4640917490B6823F0070323430B60A5
:1005B000086800F00700001B18BF012003B030BD21
:1005C0000324EFE7AB6D43F08053AB65AB6D03F0F5
:1005D00080530193019B01F0CBFDAB6DB0F5007F23
:1005E00023F08053AB65D5D1802C04D9A02C8CBFCF
:1005F00002240124D6E70024D4E70224D2E700BF76
:100600000010024000200240F8B5314C236843F04E
:100610000103236002F072F9054604E002F06EF96E
:10062000401B022816D823689B07F7D52368294862
:10063000294A2A4923F0F00343F060030025236090
:10064000A5600068116002F019F9044628B1012480
:100650002046F8BD03242046F8BD02F04FF91C4E99
:10066000054641F2883704E002F048F9431BBB42DB
:10067000F0D8B36813F00C0FF6D13268184B144D54
:100680001340336002F03AF9064604E002F036F90E
:10069000831B022BDED82B6813F02063F6D1EB60AE
:1006A000EA6842F48052EA602B612A6942F480527F
:1006B0002A612A684FF0FF3122F480222A60AB6160
:1006C0002962D5F8943043F40003C5F89430C2E7AA
:1006D00000100240340000200400002000093D000A
:1006E000FFF4FEFAF0B5124CE36C43F00103E3644F
:1006F000E36C87B0022003F0010300930D46002352
:10070000029004904FF4807701A94FF09040164674
:100710000393009A0593019700F0DAFCA36823F095
:10072000FE4343EA06022A43A26007B0F0BD00BFC1
:1007300000100240284A9368D26813F00C0308D0D6
:100740000C2B38D0042B34D0082B244818BF0020A1
:100750007047214A1168090754BFD2F894201268E3
:100760001F4954BFC2F30322C2F3031251F82200FF
:1007700003B30C2B2DD1184BDB6803F00303022BC2
:1007800025D0164A032B08BF1046134BD968DA68E8
:10079000DB68C3F34163C2F30622C1F302110133E4
:1007A000013100FB02F05B00B0FBF1F0B0FBF3F0B5
:1007B00070470C48704702F00302012AC9D0064B6B
:1007C000DB6803F00303022B4FF00000D9D105488A
:1007D000DBE70020704700BF0010024000127A00E3
:1007E000B0C100080024F400002800F039822DE98F
:1007F000F043994A03689568D6680446D80683B0E2
:1008000005F00C0506F003062ED5002D00F02B8117
:100810000C2D00F02581A3698F4F002B00F09B81E8
:100820003B6843F001033B6002F068F8804606E055
:1008300002F064F8A0EB0800022800F29C813B68FB
:100840009B07F5D53B6843F008033B603B68226A91
:1008500023F0F00313433B607B68E26923F47F439A
:1008600043EA02237B602368D90700F1CB80990714
:1008700023D5042D00F05F810C2D00F05981E36831
:10088000754E002B00F09281336843F4807333601F
:1008900002F034F8074605E002F030F8C01B0228E9
:1008A00000F2698133685B05F6D57368226923F02D
:1008B000FE4343EA026373602368190719D563692D
:1008C000654E002B00F02081D6F8943043F00103F0
:1008D000C6F8943002F012F8074605E002F00EF870
:1008E000C01B022800F24781D6F894309A07F5D54C
:1008F00023685F073FD5584B9A6DD60000F15481AD
:100900009A6D42F080529A659B6D03F0805301937B
:10091000019B0126514F3B68D80540F1A381A36894
:10092000012B00F05581052B00F0C7814A4FD7F805
:10093000902022F00102C7F89020D7F8902022F0F2
:100940000402C7F89020002B40F0498101F0D6FF47
:1009500041F28839804606E001F0D0FFA0EB0800A4
:10096000484500F20881D7F890309B07F4D4002E58
:1009700040F08A812368980618D5636A364E002BAA
:1009800000F05A81D6F8983043F00103C6F8983049
:1009900001F0B4FF074605E001F0B0FFC01B0228DC
:1009A00000F2E980D6F898309907F5D5A36A2BB301
:1009B000022B00F090810C2D00F09680264B1A68D7
:1009C00022F080721A601A68120103D4DA6822F0E9
:1009D0000302DA60204CE36823F0887323F4803349
:1009E000E36001F08BFF054605E001F087FF401B47
:1009F000022800F2C08023689B01F6D4002003B0D7
:100A0000BDE8F083082D75D00C2D71D06368B3F567
:100A1000803F00F0B480B3F5A02F00F041810E4F6D
:100A20003A6822F480323A603A6822F480223A60CE
:100A3000002B40F0A98001F061FF804606E001F044
:100A40005DFFA0EB0800642800F295803B689803E6
:100A5000F5D423680BE700BF00100240007000408F
:100A6000012E7FF4D8AEA74B1B68990739D4A54B4C
:100A7000206A1A68120756BFD3F894301B681B0906
:100A800003F0F003984200F2BF809E4B1A6842F0D8
:100A900008021A601A6822F0F00202431A605A68CB
:100AA000E16922F47F4242EA01225A60002D00F0FF
:100AB000F180FFF73FFE934A93499268C2F3031215
:100AC00003468A5C91489249006802F01F02D340B5
:100AD0000B6001F0D3FE40B92368D9077FF5C7AE9C
:100AE00090E7A369002BC2D1012003B0BDE8F083D9
:100AF000032E8BD1834A126892037FF5B8AE6268E9
:100B0000002A7FF4B4AEEFE7D6F8943023F0010367
:100B1000C6F8943001F0F2FE074604E001F0EEFE64
:100B2000C01B022827D8D6F894309B07F6D4DFE6FE
:100B3000022E7FF4A4AE734A1268520502D5E26811
:100B4000002AD1D06F4920694A6822F0FE4242EA69
:100B500000624A60B1E63B6823F001033B6001F0AC
:100B6000CDFE80463B689807B6D501F0C7FEA0EBE6
:100B700008000228F6D9032003B0BDE8F083614ADB
:100B8000136843F48033136001F0B8FEDFF874811A
:100B9000074604E001F0B2FEC01B6428EBD8D8F889
:100BA00000309B03F6D554E70026B3E6336823F400
:100BB0008073336001F0A2FE074604E001F09EFE60
:100BC000C01B0228D7D833685805F7D4236874E6C9
:100BD0004C4AD2F8903043F00103C2F8903001F053
:100BE0008DFEDFF82081074641F2883904E001F0EC
:100BF00085FEC01B4845BED8D8F890309A07F6D578
:100C0000002E3FF4B7AE3FE0FFF7B8FC00287FF4BA
:100C10006BAF3C4B1A6842F008021A601A68216AEE
:100C200022F0F0020A431A605A68E16922F47F4216
:100C300042EA01225A603CE7D6F8983023F00103DB
:100C4000C6F8983001F05AFE074604E001F056FE5F
:100C5000C01B02288FD8D6F898309A07F6D4A5E69C
:100C6000012070473B6843F480733B6001F046FE0F
:100C700080463B68D9053FF552AE01F03FFEA0EB40
:100C800008000228F5D976E71E4A936D23F08053B9
:100C900093656FE6FFF772FC00283FF40AAF23E785
:100CA00003F18043A3F53C331A6842F480221A60B2
:100CB0001A6842F480321A6066E7124BD3F890202B
:100CC00042F00402C3F89020D3F8902042F00102D1
:100CD000C3F8902083E70B4EE26AF36803F0030148
:100CE000914251D00C2D3FF4FFAE064D2B685B01B5
:100CF0003FF5FAAE2B6823F080732B6001F0FEFD08
:100D000006460DE000100240E0C10008340000205B
:100D10000400002001F0F2FD801B02283FF62BAFFB
:100D20002B689F01F6D4E968364BE26A676BA66BC5
:100D3000206B0B401343D4E90F1243EA072343EA25
:100D4000C6630138490843EA00130139520843EAEF
:100D50004153013A43EA4263EB602B682A4E43F069
:100D600080732B60EB6843F08073EB6001F0C6FD8D
:100D7000044605E001F0C2FD001B02283FF6FBAE71
:100D800033689D01F6D539E6216B03F07002013915
:100D9000B2EB011FA6D1616B03F4FE42B2EB012F4F
:100DA000A0D1A16B03F07842B2EBC16F9AD1E26B94
:100DB0005208013A03F4C001B1EB425F92D1226CB8
:100DC000520803F0C063013AB3EB426F8AD1336833
:100DD00098013FF513AE336843F080733360F368D6
:100DE00043F08073F36001F089FD044605E001F0F3
:100DF00085FD001B02283FF6BEAE33689901F6D58B
:100E0000FCE500BF8C809D0100100240002800F02E
:100E10008180454A136803F007038B422DE9F041B6
:100E20000D4604460CD2136823F007030B431360EE
:100E3000136803F007038B4202D00120BDE8F08164
:100E40002368DA073FD4990706D53849A0688A682D
:100E500022F0F00202438A6033490A6802F0070276
:100E6000AA4209D90A6822F007022A430A600A68DE
:100E700002F00702AA42E0D15A0706D52B49E068E2
:100E80008A6822F4E06202438A601B0707D5274A7A
:100E90002169936823F4605343EAC1039360FFF729
:100EA00049FC224A224C92682249C2F303120346AB
:100EB000A25C214802F01F02D340BDE8F041006867
:100EC0000B6001F0DBBC6268184B032A1B6823D05F
:100ED000022A1CD02ABB9E07AFD5144EB36823F05C
:100EE00003031343B36001F009FD41F2883807465C
:100EF00004E001F003FDC01B404510D8B3686268F0
:100F000003F00C03B3EB820FF3D123689BE79F033D
:100F1000E3D492E7012070479B01DED48DE70320E4
:100F20008CE7580589D5D8E7002002400010024020
:100F3000E0C100080400002034000020014B1868C4
:100F4000704700BF04000020054B064A9B68064915
:100F5000C3F302230868D35C03F01F03D840704733
:100F600000100240F0C1000804000020054B064AB2
:100F70009B680649C3F3C2230868D35C03F01F03D0
:100F8000D840704700100240F0C100080400002063
:100F90003F22314B02601A6851034CD54FF4A02315
:100FA00043602D4B1A6802F0010282615A68C2F355
:100FB0000722C2611A6802F0F00202621A6802F4A3
:100FC0008072C2605A68C2F306620261D3F8902050
:100FD000520738D5052383601F4BD3F8942002F0C5
:100FE00001024261D3F8982002F0010242621A68BD
:100FF00012F0807F14BF022201228262DA6802F0BE
:101000000302C262DA68C2F3021201320263DA68D2
:10101000C2F306224263DA68C2F34152013252003F
:10102000C263DA68C2F34162013252000264DB68D3
:10103000DB0E836370471B6813F4803318BF4FF4D3
:1010400080334360ADE7D3F8903013F0010318BF4D
:1010500001238360C0E700BF001002400E4B0F2247
:1010600002609A6802F0030242609A6802F0F0029D
:1010700082609A6802F4E062C2609B68DB0810B488
:1010800003F4E063054C036123685DF8044B03F04F
:1010900007030B60704700BF0010024000200240B1
:1010A000024A136843F400231360704700100240A3
:1010B000704700BF10B5054CE369DB0500D410BDD7
:1010C000FFF7F6FF4FF48073236210BD001002405B
:1010D0002DE9F04F0E6885B0002E00F0BD80DFF8DE
:1010E00094E100236AE0C2688D68032404FA08F4DE
:1010F00022EA040905FA08F545EA0905E443C56052
:10110000056807F003022C4002FA08F22243FC00B3
:1011100002604FD5544C226E42F001022266226ECC
:1011200023F0030404F1804402F0010204F580344A
:10113000039203F003024FEA8209039DA5680F2280
:1011400002FA09F8B0F1904F25EA08050BD0474A9A
:10115000904200F08480464A90420CBF022207224F
:1011600002FA09F21543A560DEF800406FEA0C05AB
:10117000FA0354BF2C404CEA0404CEF80040DEF8D9
:101180000440BA0354BF2C404CEA0404CEF8044097
:10119000DEF80840FA0254BF2C404CEA0404CEF8B2
:1011A0000840DEF80C20BC0254BF2A404CEA020280
:1011B000CEF80C20013336FA03F24DD0012202FAA8
:1011C00003F515EA060CF5D04F6827F0100909F170
:1011D000FF32012A4FEA430885D88A680192032228
:1011E000D0F808A002FA08F4CA682AEA040A02FA47
:1011F00008FB4BEA0A0AC0F808A0D0F804A0019A3C
:10120000C7F3001B2AEA050A5D469D4045EA0A0528
:101210004560C56802FA08F225EA04052A43B9F1D7
:10122000020F6FEA0404C2607FF46AAF4FEAD30989
:1012300000EB890903F00702D9F8205092004FF023
:101240000F0A0AFA02FB25EA0B0A0D69954045EAE6
:101250000A05C9F8205053E705B0BDE8F08F012218
:1012600002FA09F215437EE700100240000400482C
:101270000008004800040140002977D02DE9F04F14
:10128000DFF8F0C0DFF8F0B083B000234FF0010EBC
:101290004FF00F094FF0030A49E0584563D0344E30
:1012A000B04214BF0726022606FA02F2019E9642B9
:1012B0001BD1DCF8002022EA0702CCF80020DCF881
:1012C000042022EA0702CCF80420DCF8082022EAF5
:1012D0000702CCF80820DCF80C2022EA0707CCF83B
:1012E0000C70AA6822EA0802AA6002685E000AFA84
:1012F00006F6DD08324300EB8505026003F00702C5
:101300002F6A920009FA02F227EA02022A62826830
:1013100022EA06028260426822EA04044460C2684B
:1013200022EA0606C660013331FA03F218D00EFA3B
:1013300003F414EA0107F6D023F0030505F1804514
:1013400005F5803503F00302AE68920009FA02F851
:1013500008EA0606B0F1904F01969ED10022A5E75B
:1013600003B0BDE8F08F0EFA02F29FE7704700BFAE
:1013700000080048000401400004004803691942C5
:1013800014BF0120002070470AB18161704781625B
:10139000704700BF436901EA030221EA030141EA01
:1013A00002418161704700BF82B04FF480330193E6
:1013B000019B0B430193019BC361C161019BC3610D
:1013C000C3690193C06980F48030C0F3004002B06B
:1013D000704700BF704700BF044A5169014200D105
:1013E000704708B55061FFF7F5FF08BD00040140E4
:1013F0000849CA6810B400024FF6FF04224000F406
:10140000E063134343F0BF6343F400335DF8044BE0
:10141000CB60704700ED00E0194BDB68C3F302239B
:1014200030B4C3F10705042D03F1040428BF0425DB
:10143000062C19D9033B4FF0FF349C4022EA0402EA
:101440004FF0FF34AC4021EA04019940002841EA02
:1014500002010CDB00F1604000F561400901C9B2F6
:1014600080F8001330BC704700221346E8E7054BB4
:1014700000F00F0009010344C9B2197630BC70476F
:1014800000ED00E0FCEC00E0002807DB044A00F07F
:101490001F01012340098B4042F82030704700BFF4
:1014A00000E100E000280DDB430907492033012259
:1014B00000F01F0002FA00F041F82300BFF34F8F45
:1014C000BFF36F8F704700BF00E100E0BFF34F8FA5
:1014D0000549064BCA6802F4E0621343CB60BFF3D0
:1014E0004F8F00BFFDE700BF00ED00E00400FA05EC
:1014F0000138B0F1807F0ED2084B10B4084C586010
:10150000F02084F823000022072110469A605DF83D
:10151000044B196070470120704700BF10E000E0E5
:1015200000ED00E0024BD868C0F30220704700BF16
:1015300000ED00E0002830B423DB00F1604000F54E
:10154000614090F80003000901F00701C1F10705AF
:10155000042D01F1040428BF0425062C0FD90339FA
:101560004FF0FF348C4020EA0404C8404FF0FF31B4
:10157000A94020EA010010601C6030BC70470024C4
:10158000F4E7034C00F00F000444207E0009DBE781
:10159000FCEC00E0002809DB43090549403300F07A
:1015A0001F00012202FA00F041F82300704700BF3B
:1015B00000E100E000280BDB4309064A403300F05D
:1015C0001F0052F8233023FA00F000F001007047AA
:1015D0000020704700E100E0002809DB43090549CD
:1015E000603300F01F00012202FA00F041F82300EE
:1015F000704700BF00E100E000280BDB4309064A0A
:10160000803300F01F0052F8233023FA00F000F07E
:10161000010070470020704700E100E0044A1368B1
:1016200004280CBF43F0040323F004031360704745
:1016300010E000E0704700BF08B5FFF7FBFF08BDF2
:10164000044B40F001005860BFF34F8FBFF36F8F22
:10165000704700BF90ED00E0BFF35F8F014B0022A9
:101660005A60704790ED00E0124943788B60027831
:10167000EAB1436870B4CB60C37A057B847A867B19
:101680001B0643EA05731343427BC57B43EAC4430D
:1016900043EA8243447A027A43EA464343EA0543F3
:1016A00043EA042343EA420370BC0B617047CA60FB
:1016B0000A61704790ED00E0F0B4294E3478012CB7
:1016C0004BD00024274D7460012737702C6814F428
:1016D000806416D1022834771BD0224C0325357242
:1016E000F160656945F04075656100282ED1656936
:1016F00045F0010565610A60BFF36F8FF0BC4B6078
:1017000070472C68022724F4806402282C60377705
:10171000E3D1144804233372F160436943F040730A
:1017200043611048436943F480234361EFF310841D
:1017300072B6891A02F580701368535004328242DF
:10174000FAD184F310880020F0BC704701380128DA
:1017500088BF0020E5D9F0BC70470220F0BC70477C
:101760000C00002000200240704700BF704700BFFF
:101770003A4A536923F47F7310B523F00303384CBE
:101780005361237A042B03D1536923F480235361DB
:101790003249344A0B6913402FD1304B1A69D207B2
:1017A00014D501221A61237A93421AD1A369013B0D
:1017B000A361A369002B36D06069FFF7D5FF636989
:1017C000013363616069216900F022FB237A03F031
:1017D000FF022BB921494B6923F040734B61227002
:1017E00010BD00F029FB227A022AD3B22DD0033B90
:1017F000012B2ED900232372E8E762681A43626046
:101800000B6100F019FB227A012AD3B215D0022B0A
:1018100017D0033B012B94BFE0680020FFF7A6FF21
:1018200000232372B9E74FF0FF326261237200F0A8
:1018300003FB6069FFF798FFC8E76069FFF796FF51
:10184000EEE72069FFF792FFEAE72069FFF78CFFD8
:10185000D0E7E068FFF788FFCCE700BF0020024038
:101860000C000020FAC30200064B5A69002A01DB73
:10187000002070470449054A99609A605869C00F72
:10188000704700BF0020024023016745AB89EFCDC0
:10189000034A536943F0004353610020704700BF7F
:1018A00000200240054B5A69520005D50449054AFB
:1018B000D9600020DA6070470120704700200240A4
:1018C0003B2A19087F6E5D4C034A536943F08043FD
:1018D00053610020704700BF00200240014B586850
:1018E000704700BF0C00002070B5054601F006F8F7
:1018F000104C064601E06A1C0ED12369DB03FAD4C2
:1019000023690D4A13400ED1206910F0010002D066
:1019100001221846226170BD00F0F0FF801BA84232
:10192000EBD3032070BD05494A681A434A60012081
:10193000236170BD00200240FAC302000C000020A9
:101940002DE9F843344E96F800C0BCF1010F35D0B4
:10195000074698464CF2503001230D46144633702A
:10196000FFF7C2FF814620B1002333704846BDE82F
:10197000F8832A4970600B6813F4806323D00B68E6
:10198000022223F480630B603277FFB9234A536944
:1019900043F0010353612C60BFF36F8F4CF2503062
:1019A000C5F80480FFF7A0FF6FF0010181461B4AD4
:1019B00053690B40536100F03FFAD5E74FF002093D
:1019C0004846BDE8F8833377002FDFD07B1E012B1C
:1019D00005D94CF25030FFF787FF8146EBE70F49FE
:1019E0004B6943F4802322464B61EFF3108072B6BB
:1019F000291B04F58074136853500432A242FAD1B3
:101A000080F31088022F4CF25030E4D1FFF76CFFC6
:101A10006FF480218146CAE70C00002000200240BC
:101A2000044A536943F0006353614CF25030FFF7AE
:101A30005BBF00BF002002402E4B1A78012A57D00E
:101A400010B42D4A0024012119705C601468A405AB
:101A50002DD4116811F4806137D01168022421F46B
:101A6000806111601C77244A516941F040715161D5
:101A7000D0E90041012C196129D001211972D0E966
:101A800002109861596153695DF8044BC90023F451
:101A90007E7301F4FF6119435161536943F00203FE
:101AA0005361536943F480330020536170471468D5
:101AB00024F4007414601468640506D511680324C6
:101AC00021F4806111601C77CDE71977CBE7022004
:101AD0001872CB0703D5536943F004035361064AD8
:101AE0005DF8044B536943F4803300205361704721
:101AF000022070470C000020002002402DE9F8432E
:101B0000994F3B78012B00F01E8101263E7003683F
:101B1000002213EA060504467A6040F0CD809A0759
:101B200000F1BF805E073ED41B0737D5D4E9088695
:101B3000B04533D04CF25030D4F81C90FFF7D4FEAF
:101B4000002840F0E58019F0010F0FD08749884840
:101B50004A6A08F17848024042EAD8024A628B6A2F
:101B600006F17846034043EAD6068E627F4CA36AAC
:101B700009F0004923F0004343EA0903A3626369C3
:101B800043F4003363614CF25030FFF7ADFE6369FC
:101B900023F400336361002840F0BA8000233B70D7
:101BA0002846BDE8F8834CF25030D4E90568FFF7C9
:101BB0009BFE002840F0A68016F001031ABF08F42F
:101BC000E0634FF4E0621A46B00704D508F4805190
:101BD00042F480520B43710704D508F4005142F4DB
:101BE00000520B43F00404D508F4804142F48042D3
:101BF0000B43310704D508F4803142F480320B43A3
:101C0000F00604D508F4003142F400320B43B1066B
:101C100004D508F4802142F480220B43700604D5D9
:101C200008F4002142F400220B43B10504D508F466
:101C3000000142F400020B43700504D508F08071E6
:101C400042F080720B43310504D508F0007142F078
:101C500000720B43B00404D508F0806142F080624A
:101C60000B43710405D508F0006843EA080342F00D
:101C700000623E4E316A21EA020213433362736905
:101C800043F4003373614CF25030FFF72DFE73695B
:101C900023F400337361236800283FF445AF012526
:101CA00042E74CF25030D4F81080FFF71DFE0028B8
:101CB00030D02368012535E74CF25030D4E9019843
:101CC000E568FFF711FE00BBB9F1000F3FD1274ACD
:101CD000D36A23F07F1343EA080343EA0543D36240
:101CE000224E736943F4003373614CF25030FFF7B6
:101CF000FBFD736923F400337361051E236818BF6D
:101D000001250CE7236801250EE72368354606E721
:101D1000012543E7154E336A23F0FF0343EA080326
:101D20003362736943F4003373614CF25030FFF750
:101D3000DBFD736923F400337361236800283FF4EB
:101D4000F1AE0125EEE602252846BDE8F883B9F19B
:101D5000010FC5D1054A136B23F07F1343EA080333
:101D600043EA05431363BBE70C0000200020024058
:101D70000080FFFF43680622012B02602DD9224B11
:101D80001B6ADBB2AA2B03D0CC2B01D0BB2302E011
:101D90001D4B1B6ADBB21C4A0361136AC16923F045
:101DA000FF030129836117D10168184B41F0080135
:101DB0000160516A03EAC10101F100610162916AA7
:101DC00003EAC10303F1006307334362936A03F03C
:101DD000004343F00103C3617047072202600A4ACF
:101DE00043B9D36A03F07F038360D36AC3F3064326
:101DF000C360C4E7136B03F07F038360136BC3F30B
:101E00000643C360BBE700BF00200240F8FF0300A9
:101E1000084B5A69C00022F47E7200F4FF60104340
:101E200058615A6942F002025A615A6942F480329A
:101E30005A6170470020024013490B7F03F0FD02F6
:101E4000012ADBB20CD1114A106840F40060106026
:101E5000106820F400601060106840F4007010609A
:101E6000023B012B0CD8094B1A6842F480521A60CD
:101E70001A6822F480521A601A6842F480621A606A
:101E800000230B77704700BF0C00002000200240A9
:101E90002DE9F047424F3B78012B54D08246012474
:101EA0004CF2503088463C70FFF71EFD064620B1CC
:101EB00000233B703046BDE8F0873A4B78601A68E3
:101EC00012F4007F1A6842D1520567D51A680221C0
:101ED00022F480621A603977DAF80030012B43D09F
:101EE0004FF0FF33C8F80030DAE902532B449D422B
:101EF00026D22C4CDFF8B09005E0DAE90232013549
:101F00001344AB421CD96269EB0022F47E7203F4E5
:101F1000FF6313436361636943F0020363616369B1
:101F200043F4803363614CF25030FFF7DDFC6369AA
:101F300003EA090363610028DFD0C8F800500646B1
:101F4000FFF77AFFB4E702263046BDE8F08722F4B7
:101F500000721A601A6851051ED51A68032122F40E
:101F600080621A603977B7E7DAF80430DB0704D506
:101F70000C4A536943F0040353610A4C636943F408
:101F8000803363614CF25030FFF7AEFC636923F09D
:101F9000040306466361D3E73C779DE738779BE708
:101FA0000C0000200020024005FCFFFF044B9A6B50
:101FB00042F080529A639A6B22F080529A63704783
:101FC00000100240024A136843F4807313607047A4
:101FD00000700040024A136823F480731360704756
:101FE000007000401C491D4B4A6810B4046822F080
:101FF0000E0222434A605A6822F480325A601A68FC
:1020000022F480321A60DA6822F48032DA609A6848
:1020100022F480329A604268D40303D5196841F4EF
:1020200080311960900304D50C494B6843F4803328
:102030004B60D10704D509498B6843F480338B602A
:10204000930704D5054AD36843F48033D360002056
:102050005DF8044B704700BF007000400004014071
:10206000024A536843F00103536070470070004018
:10207000024A536823F00103536070470070004028
:10208000064AD36800F01F0123EA010343EA501017
:10209000D060936819439160704700BF00700040A2
:1020A000034A936800F01F0023EA0003936070471F
:1020B000007000400E4B10B55B690C4660B99A0584
:1020C00011D40C4A1369012C23F00403136108D0C6
:1020D00040BF20BF20BF10BD9B05F2D400F09EFA88
:1020E000EFE730BF10BD00F0A1FA0028E9D010BD25
:1020F0000070004000ED00E0B0F5804F084601D0D0
:1021000000F0BEBA00F0D8BA0649074A0B6823F0BF
:10211000070343F003030B60136943F004031361E7
:1021200030BF70470070004000ED00E0024A1369C4
:1021300043F002031361704700ED00E0024A1369A7
:1021400023F002031361704700ED00E0024A1369B7
:1021500043F010031361704700ED00E0024A136979
:1021600023F010031361704700ED00E0704700BFDB
:10217000024B186800F4C060704700BF0070004058
:10218000B0F5007F0ED01F4A136803F4C063B3F5A7
:10219000806F32D0136823F4C06343F4806313600C
:1021A0000020704717490B6803F4C063B3F5007F44
:1021B00023D00A68144B154822F4C06242F400721E
:1021C00010B40A601C684A69322303FB04F3A0FBC5
:1021D00003039B0C500503F1010306D500E023B176
:1021E0004A69520503F1FF33F9D4064B5B695B057D
:1021F00005D400205DF8044B704700207047032091
:10220000F8E700BF007000400400002083DE1B439D
:10221000054AD36823F400730343D360D36843F4BF
:102220008073D360704700BF00700040024AD368DB
:1022300023F48073D360704700700040024A5368F3
:1022400043F480635360704700700040024A536853
:1022500023F480635360704700700040024A936823
:1022600043F400439360704700700040024A936853
:1022700023F400439360704700700040072805D89E
:10228000DFE800F012202C0404040406012070474B
:10229000174B9A6D01F00B010A439A65DA6D22EA39
:1022A0000101D96500207047114B186A21F4804262
:1022B00002431A625A6A21F4204122EA010159625A
:1022C000002070470A4B9A6A0A439A62DA6A21F040
:1022D000100122EA0101D96200207047044B1A6BF9
:1022E0000A431A635A6B22EA0101596300207047BE
:1022F00000700040072805D8DFE800F00F181F0421
:1023000004040406012070470F4A936D01F00B018D
:1023100023EA01019165002070470B4A136A21F4FA
:10232000804123EA0101116200207047064A936A46
:1023300023EA0101916200207047034A136B23EAEC
:10234000010111630020704700700040072805D884
:10235000DFE800F012202C0404040406012070477A
:10236000174BDA6D01F00B010A43DA659A6D22EA28
:102370000101996500207047114B586A21F42042F1
:1023800002435A621A6A21F4804122EA0101196269
:10239000002070470A4BD86A21F010020243DA622B
:1023A0009A6A22EA0101996200207047044B5A6B35
:1023B0000A435A631A6B22EA01011963002070472D
:1023C00000700040072805D8DFE800F00F1821044E
:1023D0000404040601207047104AD36D01F00B017C
:1023E00023EA0101D165002070470C4A536A21F4A9
:1023F000204123EA0101516200207047074AD36A55
:1024000021F0100123EA0101D16200207047034A44
:10241000536B23EA010151630020704700700040B4
:10242000024A936843F480639360704700700040F1
:10243000024A936823F48063936070470070004001
:10244000024A936843F480739360704700700040C1
:10245000024A936823F480739360704700700040D1
:1024600028B9094A936823F4807393607047B0F5E4
:10247000807F06D1044A936843F480739360002000
:1024800070470120704700BF00700040024A536847
:1024900043F010035360704700700040024A5368D5
:1024A00023F010035360704700700040024A5368E5
:1024B00043F040035360704700700040024A536885
:1024C00023F040035360704700700040024A536895
:1024D00043F080035360704700700040024A536825
:1024E00023F0800353607047007000400368402B66
:1024F00005D0802B61D0102B30D001207047464B87
:102500005A6A22F020025A621A6A22F020021A62E3
:10251000DA6A22F02002DA629A6A22F020029A62D3
:102520004268D00303D5196A41F020011962910372
:1025300004D539494B6A43F020034B62D30704D5D5
:1025400035498B6A43F020038B62900733D5324ABA
:10255000D36A43F02003D362002070472E4B5A6A9F
:1025600022F008025A621A6A22F008021A62DA6A33
:1025700022F00802DA629A6A22F008029A6242683D
:10258000D10303D5196A41F008011962900304D5FB
:1025900021494B6A43F008034B62D10704D51E4919
:1025A0008B6A43F008038B62930741BF1A4AD36AD0
:1025B00043F00803D36200207047174B5A6A22F099
:1025C00040025A621A6A22F040021A62DA6A22F063
:1025D0004002DA629A6A22F040029A624268D103AB
:1025E00003D5196A41F040011962900304D50A49E4
:1025F0004B6A43F040034B62D10704D506498B6A0E
:1026000043F040038B629307D5D5034AD36A43F066
:102610004003D3620020704700040140024A13685F
:1026200043F4804313607047007000401149124B1F
:102630000A68124822F4804210B40A601C684A6991
:10264000322303FB04F3A0FB0303900508D59B0C86
:10265000013300E023B14A69920503F1FF33F9D455
:10266000044B5DF8044B5B6913F4007F14BF032037
:1026700000207047007000400400002083DE1B43F0
:102680000B490C4A0B6823F007030B601369012800
:1026900043F00403136108D040BF20BF20BF054AA8
:1026A000136923F004031361704730BFF7E700BFDD
:1026B0000070004000ED00E00C490D4A0B6823F06B
:1026C000070343F001030B601369012843F004037F
:1026D000136108D040BF20BF20BF054A136923F013
:1026E00004031361704730BFF7E700BF007000407C
:1026F00000ED00E00C490D4A0B6823F0070343F09E
:1027000002030B601369012843F00403136108D02E
:1027100040BF20BF20BF054A136923F004031361A3
:10272000704730BFF7E700BF0070004000ED00E0E9
:102730000649074A0B6823F0070343F004030B60C4
:10274000136943F00403136130BF70470070004009
:1027500000ED00E0704700BF704700BF704700BF4A
:1027600010B5134C6369D8031BD4114C636B190764
:1027700012D40F4C636B9A0609D40D4C636B5B0645
:1027800000D410BDFFF7EAFF4023636310BDFFF7DD
:10279000E3FF20236363F0E7FFF7DCFF08236363B5
:1027A000E7E7FFF7E3FC4FF480336361DDE700BF49
:1027B000000401400048704700030001114BF0B5D0
:1027C000DA6C114D42F00202DA64DB6C87B003F080
:1027D00002030446009355F82000009B08260223BC
:1027E0000122002701A9CDE90162CDE90373FEF7BB
:1027F0006FFC55F824003A463146FEF7C5FD07B098
:10280000F0BD00BF001002402C000020034B01224D
:1028100053F820000821FEF7B7BD00BF2C000020B0
:10282000034B002253F820000821FEF7ADBD00BF86
:102830002C000020024B082153F82000FEF7AABD0F
:102840002C000020704700BF704700BF10B50A4B36
:102850004FF0FF3200249A63DA639C63DC631A64EE
:102860001C649A629C62DA62DC621A631C63FFF782
:10287000EBFF204610BD00BF0010024070B50F4EA8
:1028800033780BB9012070BD0D494FF47A720546BB
:10289000B2FBF3F30868B0FBF3F0FEF729FE044641
:1028A0000028EFD10F2DEDD8024629464FF0FF301A
:1028B000FEF7B2FD7560204670BD00BF30000020FD
:1028C0000400002010B50320FEF792FD0F20FFF753
:1028D000D5FF10B10124204610BD0446FFF7B2FF1A
:1028E000204610BD034A044B11681B780B4413604B
:1028F000704700BF600A002030000020014B1868BC
:10290000704700BF600A0020014B5868704700BF45
:102910003000002038B5074C2578854201D10020D1
:1029200038BD034660682370FFF7A8FF0028F7D082
:10293000257038BD30000020014B1878704700BF6B
:102940003000002038B50446FFF7D8FF631C054669
:1029500002D0044B1B781C44FFF7D0FF431BA3425B
:10296000FAD338BD30000020024A136823F0020376
:102970001360704710E000E0024A136843F002035E
:102980001360704710E000E04FF08670704700BFA2
:10299000014B1868000C7047002004E0024B1868D7
:1029A000C0F30B00704700BF002004E0014B186823
:1029B000704700BF9075FF1F014B1868704700BF3C
:1029C0009475FF1F014B1868704700BF9875FF1F73
:1029D000024A536843F0010353607047002004E04B
:1029E000024A536823F0010353607047002004E05B
:1029F000024A536843F0020353607047002004E02A
:102A0000024A536823F0020353607047002004E039
:102A1000024A536843F0040353607047002004E007
:102A2000024A536823F0040353607047002004E017
:102A3000054B064A10B45320CA2401215C62586237
:102A40005DF8044B11607047000001400003204214
:102A5000014B01221A60704720002042014B0022E6
:102A60001A60704720002042024A536843F4807382
:102A70005360704700000140024A536823F480739A
:102A800053607047000001402DE9F04107462DEDED
:102A9000028B084614460E4600F036FB9FED1C0BD9
:102AA00041EC110B41EC180B08F0BEFA1A4B002256
:102AB00051EC100B00F0DCF900F0A2FD01F08AFBF4
:102AC000B0EE481AF0EE681A9FED110B804608F040
:102AD000ABFA114B51EC100B002200F0C9F900F0D9
:102AE0008FFD48B1621E151808F1FF3312F8014F2F
:102AF00003F8014FAA42F9D1BDEC028B731E07EB1C
:102B0000C30247F833805660BDE8F081AFF3008020
:102B100000000000000000400000F03F2DE9F04FF1
:102B20002DED028B87B0054692460846202405AA63
:102B300004A9CDE90253ADF8104002F0E9F80028ED
:102B40006FD09FED3D8B0446204600F099FD461E58
:102B500000F0CAFAB0EE480AF0EE680A41EC110B38
:102B6000DAF800B008F060FA354B51EC100B002297
:102B700000F07EF900F044FD731C00F1FF3755D0E2
:102B8000013C01254FF0000904E02B469E4205F16F
:102B900001052DDB14F8013F2D2BF6D1284600F05E
:102BA000B3FAB0EE480AF0EE680A41EC110B08F0F7
:102BB0003BFA53EC102B3846CDE9002300F0A4FA81
:102BC000DDE9002300F034FC024648469046894681
:102BD00000F09AFA0B4602464946404600F048F992
:102BE00000F00EFD2B469E42814605F10105D1DA2B
:102BF000029B039A53F8363013F809308BF80030F3
:102C0000DAF800300133CAF8003012B1059B934264
:102C100007D805AA04A9002002F07AF80446002883
:102C200092D107B0BDEC028BBDE8F08F4FF00009E8
:102C3000DEE700BFAFF300800000000000000040AE
:102C40000000F03F10B5202001F0C4FA0A4A044603
:102C50000121FFF719FF2046084A0221FFF714FF60
:102C60002046074A0321FFF70FFF2046054A0421AB
:102C7000FFF70AFF204610BD14C2000818C2000862
:102C800020C200082CC2000838B50546002455F8BB
:102C90003400013408B101F0A5FA042CF7D138BD95
:102CA0002DE9F04F2DED048B09EE101A83B09046FC
:102CB000019019EE100A00F0E3FC4FF00009814585
:102CC0009FED3F8BDFF800B14FF0000A32D219EED2
:102CD000103A13F80970202F34D0019B00261D1DD7
:102CE000002405E055F8043C1B5DBB4233D00134A1
:102CF000286800F009FAB0EE480AF0EE680A41ECE4
:102D0000110B08F091F9524651EC100B5B4600F0A4
:102D1000AFF800F075FC8442E4DB0136042E05F1C7
:102D20000805DDD109F1010919EE100A00F0A8FC2F
:102D30008145CCD3002388F8003003B0BDEC048B70
:102D4000BDE8F08F88F8007088F8017009F101097A
:102D500008F10208E8E7019B03EBC6067568284600
:102D600000F0D2F9B0EE480AF0EE680A41EC110B1F
:102D700008F05AF9524651EC100B5B4600F078F817
:102D800000F03EFC002D00F1FF30D8BF45460FDDBE
:102D9000454400EBD073B4EB630F4FEA6300ACBF64
:102DA0002D232E2308F8013BA8BF241A4545F0D156
:102DB000A8464FF0200308F8013B09F10109B3E7E9
:102DC00000000000000000400000F03F2DE9F04747
:102DD00082B00D4606461B48019201F031FD1A49AA
:102DE000284601F0ADFE0DF1040AF8B1DFF85C9061
:102DF000DFF8548004460DF1040A202729462346B3
:102E000052463046FFF78AFE019B25461F70019B04
:102E100015F8031B01334846019301F011FD4146AB
:102E2000284601F08DFE04460028E7D15246294687
:102E300030460023FFF772FE019B00221A7002B099
:102E4000BDE8F08740C2000844C2000848C200083C
:102E500098C6000800000020F0090020F0090020BA
:102E60008C0A002081F0004102E000BF83F00043A3
:102E700030B54FEA41044FEA430594EA050F08BF15
:102E800090EA020F1FBF54EA000C55EA020C7FEAD9
:102E9000645C7FEA655C00F0E2804FEA5454D4EB56
:102EA0005555B8BF6D420CDD2C4480EA020281EA20
:102EB000030382EA000083EA010180EA020281EA58
:102EC0000303362D88BF30BD11F0004F4FEA0131AA
:102ED0004FF4801C4CEA113102D0404261EB4101B9
:102EE00013F0004F4FEA03334CEA133302D052423F
:102EF00063EB430394EA050F00F0A780A4F10104FB
:102F0000D5F1200E0DDB02FA0EFC22FA05F2801834
:102F100041F1000103FA0EF2801843FA05F359411A
:102F20000EE0A5F120050EF1200E012A03FA0EFC99
:102F300028BF4CF0020C43FA05F3C01851EBE371C3
:102F400001F0004507D54FF0000EDCF1000C7EEBE0
:102F500000006EEB0101B1F5801F1BD3B1F5001F1E
:102F60000CD349085FEA30004FEA3C0C04F101043D
:102F70004FEA445212F5800F80F09A80BCF1004F66
:102F800008BF5FEA500C50F1000041EB045141EAE8
:102F9000050130BD5FEA4C0C404141EB0101013CB1
:102FA00028BFB1F5801FE9D291F0000F04BF0146A0
:102FB0000020B1FA81F308BF2033A3F10B03B3F172
:102FC00020020CDA0C3208DD02F1140CC2F10C0202
:102FD00001FA0CF021FA02F10CE002F11402D8BF60
:102FE000C2F1200C01FA02F120FA0CFCDCBF41EA2C
:102FF0000C019040E41AA2BF01EB0451294330BDFB
:103000006FEA04041F3C1CDA0C340EDC04F11404D7
:10301000C4F1200220FA04F001FA02F340EA0300AE
:1030200021FA04F345EA030130BDC4F10C04C4F1F4
:10303000200220FA02F001FA04F340EA03002946D4
:1030400030BD21FA04F0294630BD94F0000F83F41E
:10305000801306BF81F480110134013D4EE77FEA01
:10306000645C18BF7FEA655C29D094EA050F08BF4D
:1030700090EA020F05D054EA000C04BF194610462E
:1030800030BD91EA030F1EBF0021002030BD5FEA72
:10309000545C05D14000494128BF41F0004130BD9A
:1030A00014F580043CBF01F5801130BD01F00045EE
:1030B00045F0FE4141F470014FF0000030BD7FEA61
:1030C000645C1ABF194610467FEA655C1CBF0B465C
:1030D000024650EA013406BF52EA033591EA030F73
:1030E00041F4002130BD00BF90F0000F04BF00216B
:1030F000704730B54FF4806404F132044FF000059E
:103100004FF0000150E700BF90F0000F04BF002116
:10311000704730B54FF4806404F1320410F000457C
:1031200048BF40424FF000013EE700BF42004FEA77
:10313000E2014FEA31014FEA02701FBF12F07F43F4
:1031400093F07F4F81F06051704732F07F4208BFAB
:10315000704793F07F4F04BF41F40021704730B5B2
:103160004FF4607401F0004521F000411CE700BFFE
:1031700050EA010208BF704730B54FF000050AE081
:1031800050EA010208BF704730B511F0004502D582
:10319000404261EB41014FF4806404F132045FEA84
:1031A000915C3FF4D8AE4FF003025FEADC0C18BF2D
:1031B00003325FEADC0C18BF033202EBDC02C2F11F
:1031C000200300FA03FC20FA02F001FA03FE40EAB1
:1031D0000E0021FA02F11444BDE600BF70B54FF0B5
:1031E000FF0C4CF4E06C1CEA11541DBF1CEA135593
:1031F00094EA0C0F95EA0C0F00F0DEF82C4481EAFB
:10320000030621EA4C5123EA4C5350EA013518BF1A
:1032100052EA033541F4801143F4801338D0A0FB07
:1032200002CE4FF00005E1FB02E506F00042E0FBB4
:1032300003E54FF00006E1FB03569CF0000F18BFBA
:103240004EF0010EA4F1FF04B6F5007F64F5407462
:1032500004D25FEA4E0E6D4146EB060642EAC621F5
:1032600041EA55514FEAC52040EA5E504FEACE2E62
:10327000B4F1FD0C88BFBCF5E06F1ED8BEF1004F65
:1032800008BF5FEA500E50F1000041EB045170BDE1
:1032900006F0004646EA010140EA020081EA030125
:1032A000B4EB5C04C2BFD4EB0C0541EA045170BD21
:1032B00041F480114FF0000E013C00F3AB8014F19B
:1032C000360FDEBF002001F0004170BDC4F10004E4
:1032D000203C35DA0C341BDC04F11404C4F1200565
:1032E00000FA05F320FA04F001FA05F240EA0200C0
:1032F00001F0004221F0004110EBD37021FA04F6F6
:1033000042EB06015EEA430E08BF20EAD37070BDAF
:10331000C4F10C04C4F1200500FA04F320FA05F00E
:1033200001FA04F240EA020001F0004110EBD37010
:1033300041F100015EEA430E08BF20EAD37070BD80
:10334000C4F1200500FA05F24EEA020E20FA04F359
:1033500001FA05F243EA020321FA04F001F0004108
:1033600021FA04F220EA020000EBD3705EEA430E79
:1033700008BF20EAD37070BD94F0000F0FD101F0A8
:103380000046400041EB010111F4801F08BF013CE1
:10339000F7D041EA060195F0000F18BF704703F01F
:1033A0000046520043EB030313F4801F08BF013DA6
:1033B000F7D043EA0603704794EA0C0F0CEA135562
:1033C00018BF95EA0C0F0CD050EA410618BF52EA1C
:1033D0004306D1D181EA030101F000414FF0000022
:1033E00070BD50EA410606BF1046194652EA430630
:1033F00019D094EA0C0F02D150EA013613D195EAA4
:103400000C0F05D152EA03361CBF104619460AD1EB
:1034100081EA030101F0004141F0FE4141F47001F5
:103420004FF0000070BD41F0FE4141F4780170BDE5
:1034300070B54FF0FF0C4CF4E06C1CEA11541DBF4A
:103440001CEA135594EA0C0F95EA0C0F00F0A7F84C
:10345000A4EB050481EA030E52EA03354FEA013179
:1034600000F088804FEA03334FF0805545EA13138C
:1034700043EA12634FEA022245EA111545EA106554
:103480004FEA00260EF000419D4208BF964244F1EB
:10349000FD0404F5407402D25B084FEA3202B61A0A
:1034A00065EB03055B084FEA32024FF480104FF4DE
:1034B000002CB6EB020E75EB030E22BFB61A754652
:1034C00040EA0C005B084FEA3202B6EB020E75EBE5
:1034D000030E22BFB61A754640EA5C005B084FEA4D
:1034E0003202B6EB020E75EB030E22BFB61A75461A
:1034F00040EA9C005B084FEA3202B6EB020E75EB25
:10350000030E22BFB61A754640EADC0055EA060EE5
:1035100018D04FEA051545EA16754FEA06164FEA28
:10352000C30343EA52734FEAC2025FEA1C1CC0D1D4
:1035300011F4801F0BD141EA00014FF000004FF061
:10354000004CB6E711F4801F04BF01430020B4F122
:10355000FD0C88BFBCF5E06F3FF6AFAEB5EB030CDA
:1035600004BFB6EB020C5FEA500C50F1000041EBD7
:10357000045170BD0EF0004E4EEA113114EB5C04A4
:10358000C2BFD4EB0C0541EA045170BD41F4801177
:103590004FF0000E013C90E645EA060E8DE60CEA7F
:1035A000135594EA0C0F08BF95EA0C0F3FF43BAF9C
:1035B00094EA0C0F0AD150EA01347FF434AF95EA53
:1035C0000C0F7FF425AF104619462CE795EA0C0F37
:1035D00006D152EA03353FF4FDAE1046194622E704
:1035E00050EA410618BF52EA43067FF4C5AE50EADE
:1035F00041047FF40DAF52EA43057FF4EBAE12E7CE
:103600004FEA410212F5001215D211D56FF478730A
:10361000B3EB625212D94FEAC12343F0004343EAAD
:10362000505311F0004F23FA02F018BF4042704788
:103630004FF00000704750EA013005D111F0004012
:1036400008BF6FF0004070474FF00000704700BFA8
:10365000000000000000000000000000000000006A
:10366000000000000000000000000000000000005A
:10367000000000000000000000000000000000004A
:1036800090F800F06DE9024520F007016FF0000CA2
:1036900010F0070491F820F040F049804FF000044A
:1036A0006FF00700D1E9002391F840F000F1080025
:1036B00082FA4CF2A4FA8CF283FA4CF3A2FA8CF35D
:1036C0004BBBD1E9022382FA4CF200F10800A4FAC4
:1036D0008CF283FA4CF3A2FA8CF3E3B9D1E9042318
:1036E00082FA4CF200F10800A4FA8CF283FA4CF34F
:1036F000A2FA8CF37BB9D1E9062301F1200182FA09
:103700004CF200F10800A4FA8CF283FA4CF3A2FA0E
:103710008CF3002BC6D0002A04BF04301A4612BA1C
:10372000B2FA82F2FDE8024500EBD2007047D1E91F
:10373000002304F00305C4F100004FEAC50514F0AE
:10374000040F91F840F00CFA05F562EA05021CBF7F
:1037500063EA050362464FF00004A9E70000000099
:1037600001F0FF01102A2BDB10F0070F08D010F832
:10377000013B013A8B422DD010F0070F42B3F6D136
:10378000F0B441EA012141EA014122F007047FF04F
:1037900000070023F0E80256083C85EA010586EAA6
:1037A000010685FA47F5A3FA87F586FA47F6A5FAE2
:1037B00087F68EB9EED1F0BC01F0FF0102F00702EE
:1037C00032B110F8013B013A83EA010313B1F8D199
:1037D0000020704701387047002D06BF354603387A
:1037E000073815F0010F07D1013015F4807F02BFB3
:1037F000013015F4C03F0130F0BC0138704700BF04
:10380000844641EA000313F003036DD1403A41D3EB
:1038100051F8043B40F8043B51F8043B40F8043BAA
:1038200051F8043B40F8043B51F8043B40F8043B9A
:1038300051F8043B40F8043B51F8043B40F8043B8A
:1038400051F8043B40F8043B51F8043B40F8043B7A
:1038500051F8043B40F8043B51F8043B40F8043B6A
:1038600051F8043B40F8043B51F8043B40F8043B5A
:1038700051F8043B40F8043B51F8043B40F8043B4A
:1038800051F8043B40F8043B51F8043B40F8043B3A
:10389000403ABDD2303211D351F8043B40F8043BDA
:1038A00051F8043B40F8043B51F8043B40F8043B1A
:1038B00051F8043B40F8043B103AEDD20C3205D3EA
:1038C00051F8043B40F8043B043AF9D2043208D0E2
:1038D000D2071CBF11F8013B00F8013B01D30B8854
:1038E00003806046704700BF082A13D38B078DD032
:1038F00010F003038AD0C3F10403D21ADB071CBF04
:1039000011F8013B00F8013B80D331F8023B20F86D
:10391000023B7BE7043AD9D3013A11F8013B00F8A6
:10392000013BF9D20B7803704B7843708B7883702E
:10393000604670470000000000000000000000002A
:10394000A2EB0300704700BF02780B78012A28BF62
:103950009A42F5D16DE9044540EA0104CDE90267D8
:103960006FF0000C4FEA447212B380EA010414F0C5
:10397000070F6AD100F0070420F0070004F00305E8
:1039800021F007014FEAC505F0E8042314F0040F05
:10399000F1E804670CFA05F462EA040266EA040638
:1039A0000AD063EA0403624667EA0407664603E056
:1039B000F0E80423F1E8046782FA4CF582EA060491
:1039C000A4FA8CF46CBB83FA4CF583EA0705A5FADC
:1039D0008CF595B950E9022351E9026782FA4CF55A
:1039E00082EA0604A4FA8CF483FA4CF583EA07050C
:1039F000A5FA8CF52543DBD09CB92DBAB5FA85F430
:103A000024F0070427FA04F1DDE9026723FA04F33E
:103A100003F0FF0001F0FF01FDE80445A0EB010009
:103A2000704724BAB4FA84F424F0070426FA04F1A7
:103A3000DDE9026722FA04F202F0FF0001F0FF0163
:103A4000FDE80445A0EB0100704714F0030F3CD1E2
:103A500010F0030428D150F8082B51F8083B82FAE3
:103A60004CF582EA0305A5FA8CF55DB950F8042CF3
:103A700051F8043C82FA4CF582EA0305A5FA8CF56C
:103A8000002DE8D02DBAB5FA85F424F0070423FA06
:103A900004F122FA04F202F0FF0001F0FF01FDE858
:103AA0000445A0EB010070474FEAC40420F0030076
:103AB00050F8082B21F0030151F8083B0CFA04F4EC
:103AC00062EA040263EA0403C9E710F003041AD0AF
:103AD000A1EB040120F00300E40750F8042B06D00A
:103AE0000FD28B785FFAA2F4E41A06D12BB1CB780F
:103AF0005FFAB2F4E41A00D11BB920465DF8104B0E
:103B0000704701F1040150F8042BCC0721F00301A8
:103B100051F8043B48D824D222F07F4482FA4CF575
:103B200094EA1325A5FA8CF50AD165B951F8043B3E
:103B300084EA0204B4EB036F0ED150F8042BEBE7D8
:103B40004FEA132355E035F07F454DD10878FDE865
:103B50000445C0F1000070474FEA126203F0FF0312
:103B600047E002EA1C4482FA4CF594EA1345A5FAB0
:103B70008CF50AD165B951F8043B84EA0204B4EB30
:103B8000034F0CD150F8042BEBE74FEA134330E01E
:103B900015EA1C4528D10B884FEA124229E04FEA6A
:103BA000124203EA1C4324E002F0FF0482FA4CF5BF
:103BB00094EA1365A5FA8CF50AD165B951F8043B6E
:103BC00084EA0204B4EB032F09D150F8042BEBE78D
:103BD0004FEA13630DE015F0FF0F05D10B684FEAB4
:103BE000122223F07F4304E04FF00000FDE804457B
:103BF000704712BA1BBA82FA4CF482EA0304A4FAA0
:103C00008CF5B5FA85F402FA04F203FA04F34FEAEC
:103C10001260FDE80445A0EB136070474FF0FF3CD5
:103C200006E000BF4FF0010C02E000BF4FF0010CB6
:103C30004DF804CD4FEA410C7FEA6C5C4FEA430C2F
:103C400018BF7FEA6C5C1BD001B050EA410C0CBF7E
:103C500052EA430C91EA030F02BF90EA020F0020E0
:103C6000704710F1000F91EA030F58BF994208BF47
:103C700090422CBFD8176FEAE37040F00100704704
:103C80004FEA410C7FEA6C5C02D150EA013C07D15B
:103C90004FEA430C7FEA6C5CD6D152EA033CD3D0A6
:103CA0005DF8040B704700BF8446104662468C46A0
:103CB0001946634600E000BF01B5FFF7B7FF0028D3
:103CC00048BF10F1000F01BD4DF808EDFFF7F4FFFC
:103CD0000CBF012000205DF808FB00BF4DF808ED87
:103CE000FFF7EAFF34BF012000205DF808FB00BFAA
:103CF0004DF808EDFFF7E0FF94BF012000205DF8CC
:103D000008FB00BF4DF808EDFFF7CEFF94BF012080
:103D100000205DF808FB00BF4DF808EDFFF7C4FF79
:103D200034BF012000205DF808FB00BF4FEA410CC2
:103D30007FEA6C5C02D150EA013C0AD14FEA430CA5
:103D40007FEA6C5C02D152EA033C02D14FF00000E2
:103D500070474FF00100704753B94AB9002908BFB6
:103D600000281CBF4FF0FF314FF0FF3000F06EB95C
:103D7000ADF1080C6DE904CE00F006F8DDF804E0C2
:103D8000DDE9022304B070472DE9F047089D0446A1
:103D90008C46002B40F083808A42174647D9B2FAFE
:103DA00082F242B1C2F1200024FA00F09140974023
:103DB00040EA010C94404FEA1748230CBCFBF8F68C
:103DC0001FFA87FE08FB16C143EA014306FB0EF10A
:103DD000994209D9FB1806F1FF3080F01981994208
:103DE00040F21681023E3B445B1AA4B2B3FBF8F0EA
:103DF00008FB103344EA034400FB0EFEA64509D934
:103E00003C1900F1FF3380F00581A64540F20281A4
:103E100002383C4440EA0640A4EB0E0400261DB1E3
:103E2000D4400023C5E900433146BDE8F08702B91C
:103E3000FFDEB2FA82F2002A50D1CB1B4FEA174EB6
:103E40001FFA87F80126B3FBFEFC210C0EFB1C3386
:103E500041EA034108FB0CF38B4207D979180CF1B6
:103E6000FF3002D28B4200F2E9808446C91AA3B225
:103E7000B1FBFEF00EFB101143EA014408FB00F811
:103E8000A04507D93C1900F1FF3302D2A04500F24A
:103E9000D9801846A4EB080440EA0C40BFE78B42E7
:103EA00009D9002D00F0B1800026C5E90001304697
:103EB0003146BDE8F087B3FA83F6002E4AD18B4233
:103EC00002D3824200F2B880841A61EB0301012020
:103ED0008C46002DA8D0C5E9004CA5E7C2F120030F
:103EE00020FA03F6974001FA02F04FEA174ED94044
:103EF0003043030CB1FBFEF61FFA87F80EFB1611D8
:103F000043EA014306FB08F1994204FA02F409D995
:103F1000FB1806F1FF3C80F08D80994240F28A80C8
:103F2000023E3B445B1A81B2B3FBFEF00EFB103342
:103F300041EA034100FB08F38B4207D9791800F1ED
:103F4000FF3C73D28B4271D902383944CB1A40EA14
:103F5000064678E7C6F1200C03FA06F422FA0CF3C1
:103F60001C4320FA0CF701FA06F34FEA144E21FA2B
:103F70000CF11F433B0CB1FBFEF91FFA84F80EFB5A
:103F8000191143EA014109FB08FA8A4502FA06F2CF
:103F900000FA06F308D9611809F1FF3048D28A45C2
:103FA00046D9A9F102092144A1EB0A01BFB2B1FB34
:103FB000FEF00EFB101147EA014700FB08F8B84578
:103FC00007D9E71900F1FF312ED2B8452CD90238B4
:103FD000274440EA0940A7EB0807A0FB02894F45A8
:103FE000C64649461AD317D05DB1B3EB0E0267EB54
:103FF000010707FA0CFCF2404CEA0202F740C5E95F
:10400000002700263146BDE8F0872E4628460BE7FC
:104010000646E9E61846FDE64345E5D2B8EB020E52
:1040200069EB04010138DFE70846D2E760468DE717
:104030008146B9E7664675E730464AE7ACF1020CBF
:10404000394413E702383C4424E700BF704700BFFF
:1040500030B597B0FEF736FC0021242206A8CDE942
:104060000011CDE90211049100F07EFB10216022C5
:1040700001240223042505910D922821072205A879
:10408000CDE91044CDE912120B940F9315931495BA
:10409000FCF7AAFB00B1FEE7034629460F220325E1
:1040A0006846CDE90233CDE900250493FCF7AEFE66
:1040B00010BB124B1249DA6C4C6042F00202DA6417
:1040C000DB6C10488C6003F0020305930823CD607D
:1040D000059A0B60FCF7FCFFFEF7B4FD0546C8200F
:1040E00000F078F80446084928462246FEF7D8FD35
:1040F0002046FCF701F9FBE7FEE700BF0010024095
:104100000C0A002000040048FCC10008DFF834D08D
:10411000FCF720F9002103E00B4B5B5843500431BE
:104120000A480B4B42189A42F6D30A4A02E000238F
:1041300042F8043B084B9A42F9D300F027F8FFF706
:1041400087FFFEE700C0002098C60008000000209E
:10415000F0090020F00900208C0A0020FEE7000092
:10416000014B1868704700BF3800002008B50021D7
:10417000044602F081FC044B1868C36B03B19847F6
:104180002046FCF775F900BF4CC2000870B50D4E13
:104190000D4D761BB61006D0002455F8043B0134B3
:1041A0009847A642F9D1094E094D761B07F0F4FF56
:1041B000B61006D0002455F8043B01349847A642B7
:1041C000F9D170BD88C6000888C6000890C60008EE
:1041D00088C60008024B0146186800F00BB800BF03
:1041E00038000020024B0146186803F045BF00BFAD
:1041F000380000202DE9F04F01F10B05162D83B09A
:10420000064624D8102900F2B78000F0FDFA1025E8
:1042100002211823DFF8F0844344A3F108025C680C
:10422000944200F0B580636823F003032344D4E98B
:1042300002515A68E96042F0010230468D605A60CE
:1042400000F0E8FA0834204603B0BDE8F08F35F0FE
:10425000070500F19180A94200F28E8000F0D4FAA7
:10426000B5F5FC7FC0F090816B0A00F08C80042BC8
:1042700000F26681AB0903F1390103F13807CB0085
:10428000DFF884844344A3F108005C68A04206D1AF
:104290000CE0002A80F22281E468A04206D0636824
:1042A00023F003035A1B0F2AF3DD3946D8F81040D8
:1042B000DFF858C4644577D0626822F00302531BCC
:1042C0000F2B00F36F81002BC8E904CC80F26081D2
:1042D000B2F5007F80F01081D3080133500901222C
:1042E0008240D8F8040058F83370A76008EBC30E7A
:1042F0000243AEF10800E060C8F8042048F83340FB
:10430000FC608B1001209840904254D8104206D196
:1043100021F003014000104201F10401FAD008EB42
:10432000C1094C468E46E768BC4207D114E1002B18
:1043300080F21B81FF68BC4200F00E817A6822F097
:104340000302531B0F2BF2DDD7E902E4791945F084
:1043500001057D6043F00105CEF80C403046C4F8FD
:1043600008E0C8E90411C1E902CC4D60BB5000F07F
:1043700051FA07F1080402E00C23336000242046C0
:1043800003B0BDE8F08F4FF4007340213F2777E77B
:10439000DC68A34208BF02317FF445AFD8F8104073
:1043A000DFF868C3644587D1D8F804208B1001205A
:1043B00098409042AAD9D8F80840676827F00307C8
:1043C000BD4202D87B1B0F2B77DCDFF84493CA4B2E
:1043D000D9F800201B6801322B4404EB070A00F0D7
:1043E0002E8103F580530F3323F47F6B2BF00F0BDB
:1043F0005946304600F038FA411C024600F0EB8086
:10440000824500F2E680BD4B1968594419600846A0
:1044100000F04B81D9F80010019301311BBFA2EBD2
:104420000A0A5044C9F80020186012F0070A00F088
:104430001481CAF108010A44CAF580519344083135
:10444000A1EB0B01C1F30B0949463046009200F085
:104450000BFA421CDDE9002300F05C81801A00EBBE
:10446000090B1968C8F808204BF00100494444457D
:104470005060196000F026810F2F40F2258160689E
:104480000C3F27F0070700F0010004EB070C38434E
:104490004FF0050E0F2F6060CCE901EE00F2428173
:1044A00050681446964B1A688A4238BF1960954B7B
:1044B0001A688A4238BF196090E0621943F001031C
:1044C00045F0010565603046C8F80820536000F0EB
:1044D000A1F90834204603B0BDE8F08F2344E16819
:1044E0005A68A56842F00102E96030468D605A6062
:1044F00000F090F9083442E7B2F5206F4FEA5223FA
:1045000061D3142B00F2BA8003F15C00C0005B336E
:1045100008EB000758F80000083F874200F092803F
:10452000436823F00303934202D980688742F7D19E
:10453000C768D8F80420C4E90207BC60C460E0E69C
:10454000142B59D9542B00F2A1802B0B03F16F01CE
:1045500003F16E07CB0093E60EF1010E1EF0030F80
:1045600004F108047FF4DFAE51E03A443C4653685E
:10457000F96854F8085F43F0010353603046E9607E
:104580008D6000F047F9FAE6E90805F1080341E615
:1045900022443046536843F001035360083400F06E
:1045A00039F9ECE6611943F0010745F00105656052
:1045B0003046C8E90411C1E902CC4F60A35000F0B5
:1045C00029F90834DBE6930903F13900C0003833D8
:1045D0009EE7444564D0D8F80840606820F0030B9B
:1045E0005D45ABEB050302D80F2B3FF766AF3046B6
:1045F00000F010F90024C2E603F15C0103F15B074F
:10460000CB003DE659F808394B4540F0AA8011F03F
:10461000030F01F1FF31F5D1D8F8043023EA00038C
:10462000C8F80430400098423FF6C5AE18B9C2E65B
:1046300040000EF1040E1842FAD071466FE603F105
:10464000100BD5E69A104FF0010ED8F804300EFA90
:1046500002F21A43C8F804206DE702EB0B0149424D
:10466000C1F30B0949463046009200F0FDF8431CA7
:10467000DDE900237FF4F2AED146F2E6542B26D8D2
:10468000130B03F16F00C0006E3341E7B3F5AA7F4F
:1046900026D8EB0B03F1780103F17707CB00EFE5A8
:1046A000164B186858441860B4E6CAF30B0CBCF1FA
:1046B000000F7FF4AFAED8F80840BB444BF00100C8
:1046C0006060EFE61446EDE6012353608FE7B3F533
:1046D000AA7F33D8D30B03F17800C000773317E7F4
:1046E00040F25452934233D8AB0C03F17D0103F1F5
:1046F0007C07CB00C4E500BF580A0020280A002030
:10470000500A0020540A0020680400207004002091
:1047100070080020AAF1080AD344ABEB020B4FF05B
:1047200000099EE604F108013046009303F0A4FC62
:10473000D8F80840009B60681968B3E640F254500E
:1047400083420AD8930C03F17D00C0007C33DFE67E
:104750004FF47E737F217E2792E54FF47E707E2397
:10476000D6E6D8F804305DE7F0B4860746D0541E8C
:10477000002A3CD0CAB2034601E0013C37D303F81B
:10478000012B9D07F9D1032C2AD9CDB245EA052585
:104790000F2C45EA054534D9A4F1100222F00F0C84
:1047A00003F120071609674403F1100242E904559A
:1047B00042E902551032BA42F8D1721C14F00C0FC3
:1047C00003EB021204F00F0613D0331F23F0030390
:1047D0000433134442F8045B9342FBD106F0030414
:1047E0002CB1CAB21C4403F8012B9C42FBD1F0BC93
:1047F000704734461346002CF3D1F8E714460346BD
:10480000C1E71A462646E0E7014803F091BD00BF24
:10481000740A0020014803F093BD00BF740A002011
:104820000EB400B582B003AB816853F8042B01933A
:1048300000F072FA02B05DF804EB03B0704700BFFD
:104840000FB400B5074983B004AB086853F8042BD4
:104850008168019300F060FA03B05DF804EB04B0E6
:10486000704700BF3800002038B5074D00220446CD
:1048700008462A60FBF71EFE431C00D038BD2B689B
:10488000002BFBD0236038BD880A00202DE9F04FB3
:10489000012B1D46ADF21C4D81460F4690464FF050
:1048A000010340F2448119469C4600244FF0FF303A
:1048B00006E0A3EB000C1C46012163189D4210D9B1
:1048C00008EB000218F80360525C9642F1D300F046
:1048D00082804FF0010C61462046644463189D427B
:1048E000EED8CDF808C04FF0010C614663460024B5
:1048F0004FF0FF3606E0A3EB060C1C4601216318BF
:104900009D420FD908EB010218F803E0925D96452D
:10491000F1D866D04FF0010C614626466444631816
:104920009D42EFD8013600F1010B5E4502D3CDF870
:1049300008C0B34605AB0DF2144243F8045F93423E
:10494000FBD1002D00F0F7806C1E06AE08EB0400D2
:1049500008F1FF32019612F8011FD3432B44434460
:10496000904246F82130F6D1029B5A4608EB0301EB
:10497000404603F061FD002840F08280029B0BF16D
:10498000FF32EB1A824606460592039309EB060EA8
:10499000019A1EF8043052F8233043B3BAF1000FE5
:1049A00004D0029A9342039A38BF13461E444FF034
:1049B000000A7B1BB342E9D209EB070045F4006112
:1049C00004F0EAFB07447B1BB342DFD200200DF268
:1049D0001C4DBDE8F08F8C4512BF013164440121AC
:1049E0006BE761450ABF64180131012187E7D345B0
:1049F0005B4638BF5346A34211D2591E9A1941440F
:104A00004A4402E00133A34209D212F8010B11F823
:104A100001CF8445F6D0CBF101021644C6E7D34559
:104A2000059B40F282800BEB06024A4408EB0B0127
:104A3000CDF810B002E0534516D0034612F8010D30
:104A400011F801CD844503F1010B03F1FF30F2D0E1
:104A50005B46DDF810B00AF1010A9A450BD8029BBB
:104A6000DDF80CA01E44A4E753460AF1010A9A455A
:104A7000DDF810B0F3D970460DF21C4DBDE8F08F93
:104A8000A5EB0B035B4538BF5B46013304930BF189
:104A9000FF330293CBF101030026039345F4006A30
:104AA00009EB0601019A0B5D52F823306BB11E44ED
:104AB0007B1B9E42F4D909EB0700514604F06CFBC6
:104AC00007447B1B9E42EBD980E7A34514D2029B8F
:104AD0000BEB060208EB030C4A445B4602E0013391
:104AE000A34209D212F8010B1CF801EF8645F6D05B
:104AF000039A16441E44DBE7BBF1000F10D00BEB0A
:104B00000600484408EB0B0201E0434508D012F8C8
:104B100001ED10F801CDE6451346F6D0049BC6E73B
:104B200008460DF21C4DBDE8F08F5B4693E70293FB
:104B30004FF0000BFEE606AB4FF0FF34019313E796
:104B40002DE9F0410E46097890B00446002950D076
:104B50007278002A00F08280B378002B4DD0F07874
:104B6000002800F082803379002B54D03046FEF7C5
:104B700087FD074640F40071204604F00DFB874294
:104B800067D8FE2F00F28580A0EB07084022791C31
:104B90006846A044FFF7E8FD77B1721ED519F8B258
:104BA00012F8013F10A903F03F030B44B11A01446E
:104BB000AA4203F8401CF3D1013C10AAE35D03F0C4
:104BC0003F03134413F8400C0444A04503D234E0DF
:104BD0002C44A04531D3E55D10AB05F03F051D44E5
:104BE0003A463146204615F8405C03F025FC002883
:104BF000EED1204610B0BDE8F08142EA01410278D2
:104C000000E0044642EA0343601C12B39942627812
:104C1000F7D1013CEDE72278DAB1316809BA01E059
:104C2000994208D042EA0323204614F8012F002AB3
:104C3000F6D199420DD1C41EDBE718F8073008EB16
:104C4000070033B14FF4006104F0A6FA80444445F4
:104C5000B2D90024204610B0BDE8F08104F000FA7B
:104C60000446204610B0BDE8F081120442EA016219
:104C700042EA0323227800E02C4642EA0001651C48
:104C80000802002AE5D0B3EB012F6278F4D1023C90
:104C9000AFE701463B4620463246FFF7F7FD0446A4
:104CA000A7E700BF844618B3B0B467460D4617F8AF
:104CB000010B01E0A04216D015F8014B002CF9D1F0
:104CC000E8B117F8015B0C4601E0002BF9D014F8AD
:104CD000013B9D42F9D14DB1002307F8013C17601B
:104CE0006046B0BC70476BB1BC46DEE72F46F6E7C6
:104CF000D2F800C0BCF1000FD6D160467047B0BCFE
:104D000010607047176060468CF80030E9E700BF1C
:104D10000123FFF7C7BF00BF2DE9F04F2DED068B34
:104D2000CFB01C468B461746814603F0EFFA036866
:104D3000089418461193FEF7A3FC1090B9F1000FE8
:104D400004D0D9F83830002B00F00A82DBF8643048
:104D5000BBF90C2013F0010F93B202D1910540F181
:104D6000D5869E040AD4DBF8641042F4005321F483
:104D70000051ABF80C30CBF864109BB21D0740F12A
:104D8000CA80DBF81020002A00F0C58003F01A0268
:104D90000A2A00F0CE8000239FED837BCDE92333E8
:104DA000CDE91333CDE915330C931293049325AB5E
:104DB000229398463B788DED0E7B09EE10BA002BBE
:104DC00000F078813C4604E014F8013F002B00F02D
:104DD000C980252BF8D1E51B40F0C7802378002B34
:104DE00000F06881002305938DF86B300293661CF8
:104DF0004FF0FF33647803932B254FF0200A0136E0
:104E0000A4F120035A2B00F2D380DFE813F07802DC
:104E1000D100D1007202D100D100D1006A00D100CE
:104E2000D10010022102D1001B025802D10052020F
:104E30005B005B005B005B005B005B005B005B009A
:104E40005B00D100D100D100D100D100D100D10050
:104E50005D01D100B30190025D015D015D01D100F2
:104E6000D100D100D1008A02D100D100E902D100E5
:104E7000D100D100C101D1002502D100D10021080B
:104E8000D100D100D100D100D100D100D100D1009A
:104E90005D01D100B301E7015D015D015D01FE022D
:104EA000E701AD01D1008102D1001B031708070300
:104EB000AD01D100C10182001308D100D100F20779
:104EC000D1008200A4F13003002216F8014B02EB5E
:104ED000820203EB4202A4F13003092BF5D90592BB
:104EE0008EE7484603F012FA436815931846FEF71A
:104EF000C7FB034648461C46169303F007FA826830
:104F0000139234B1139B23B1139B1B78002B41F0F8
:104F1000D980347873E75946484601F03BFD0028B4
:104F200041F07483BBF80C3003F01A020A2A7FF4B4
:104F300032AFBBF90E20002AFFF62DAFDBF864205C
:104F4000D20702D49E0541F1918123463A46594643
:104F5000484601F0DDFC049004984FB0BDEC068B90
:104F6000BDE8F08FE51B00F0A580DDE923320133B9
:104F70002A44072BCDE92332C8F80070C8F8045042
:104F800006DC08F10808049A23782A44049226E7EC
:104F900019EE101A22AA484604F050F9002841F0F0
:104FA0004D840DF19408EEE70000000000000000C1
:104FB0000996002C7ED000231A464FF0010A8DF886
:104FC000D4408DF86B30079203920A920D920B92A7
:104FD000CDF818A035AF029B029913F0020318BF59
:104FE0000AF1020A11F0840B05D10599A1EB0A061A
:104FF000002E00F3D483249D72B1239A013201352F
:105000000DF16B000121072ACDE92325C8E9000134
:1050100000F3058408F108086BB1239B01330235C6
:105020001BA90222072BCDE92335C8E9001200F3A2
:10503000068408F10808BBF1800F00F09682039BFC
:10504000069A9E1A002E00F3D882029BDE0500F11C
:105050003082239B069AC8F8007001331544072B51
:105060002495C8F80420239300F32D8308F1080841
:10507000029B5C0705D5059BA3EB0A04002C00F3FB
:10508000EC83DDE904325245ACBF9B1853440493D2
:10509000002D40F0EF8200232393079B1BB107995B
:1050A000484602F0E9FF0DF19408099F3B78002B78
:1050B0007FF488AE249B19EE10BA002B40F0F887DD
:1050C0000023239300F08FBC089B0996073323F03D
:1050D0000703B3EC027B8DED0E7BDDE90E560893E2
:1050E00026F000430AEE903A0AEE105A5BEC1AAB37
:1050F000B84B504659464FF0FF32FEF717FE0028D6
:1051000040F05285B34B4FF0FF3250465946FEF700
:10511000EFFD002840F04885002200232846314654
:10512000FEF7DCFD002841F09A819DF86B20AA4F24
:10513000AA4B029800214FF0030A20F0800007914B
:105140000290472CC8BF1F46CDF818A003910A91C2
:105150000D910B91002A3FF43EAF0AF1010A3AE7A4
:10516000484602F06BFEF1E5029B347843F02003E1
:10517000029344E6089B099653F8042B8DF8D4203B
:1051800000210A464FF0010A08938DF86B101AE7C8
:10519000089D099655F8047B00268DF86B60002F5A
:1051A00000F08486039A1346013300F02E873146BF
:1051B0003846FEF7D5FA0790002801F0E281079BF8
:1051C0000396DA1B0692334622EAE27A08959DF8A6
:1051D0006B2007930A930D930B93BBE7029B0996F1
:1051E0009D0640F1AD80089B073323F00703194665
:1051F000F1E80223089192469B46002A73F10003CE
:10520000C0F2AF80039B013300F0AD85029B23F019
:1052100080055AEA0B0340F0B182039B002B40F05B
:10522000B48202950023039306934EAFC3E0089B1C
:1052300053F8042B0592002A80F27184059A089392
:1052400052420592029B347843F004030293D6E560
:1052500034788DF86B50D2E5029B099643F0100527
:10526000AF0640F12984089B073323F00703F3E8D6
:1052700002AB0893012300228DF86B20039A11469C
:1052800001317DD025F0800102915AEA0B0140F0F6
:105290007182002A40F08686002BC3D115F00103ED
:1052A000069300F06B8430238DF837310DF23717F9
:1052B00081E0029B347843F0800302939FE53246FD
:1052C00012F8014B2A2C01F0F182A4F13003092BD2
:1052D000164698BF002201F2928116F8014B02EBAC
:1052E000820203EB4202A4F13003092BF5D90392A9
:1052F00086E5029B347843F0010302937FE59DF835
:105300006B30002B7FF405AE34788DF86BA076E51A
:105310003478029B6C2C00F0C28543F0100302939A
:105320006DE5029B347843F00803029367E5029B26
:10533000099643F010030293029B9D063FF553AF7D
:10534000029BD80640F1F684089B53F8042B08937F
:105350004FEAE27B5B46002A73F100039246BFF6F8
:1053600051AF039A029DDAF1000A11464FF02D0366
:105370006BEB4B0B01318DF86B304FF0010381D19A
:10538000012B00F0FB81022B4EAF73D112984FEA34
:105390001A130AF00F0143EA0B734FEA1B129A46E5
:1053A0009346435C07F8013D5AEA0B03EFD14EAB3D
:1053B000DB1B029506930023039907930A930D9331
:1053C0000B93069B9DF86B208B42B8BF0B469A4609
:1053D000C0E600BFFFFFEF7F50C2000854C20008C4
:1053E000029B099643F010030293029B990640F139
:1053F0007783089B073323F00703F3E802AB089396
:10540000029B23F48065002335E73478029B682CE7
:1054100000F03E8543F040030293F0E4089B0996B8
:1054200047F6300153F8042BADF86C10029908933D
:10543000CD4B129341F0020592464FF0000B022330
:10544000782418E7029B09969E0600F1A183029B2F
:10545000DD0600F1AD85029B5C0600F14986029BEA
:10546000980540F1A585089B049953F8042B0893EF
:1054700011701AE64FEADA0242EA4B724FEADB0198
:105480000AF007038B46924630335AEA0B013A463C
:1054900007F8013DEED1E90789D5302B87D03023BD
:1054A000023A07F8013C4EAB9B1A02950693174649
:1054B00081E7652C40F31381DDE90E010022002312
:1054C000FEF702FC002800F00482239BA74AC8F8DC
:1054D0000020013301350122072BCDE92335C8F81F
:1054E000042000F3418508F108081C9B0C9A9342A4
:1054F00080F20783239B119AC8F80020109AC8F8FD
:10550000042001331544072B2495239300F3B28420
:1055100008F108080C9B5C1E002C7FF7A9AD102C2D
:10552000239BDFF84CB240F330855F46102619EE1E
:1055300010BA05E008F10808103C102C40F324854F
:1055400001331035072BCDE92335C8E90076F1DDAD
:1055500022AA5946484603F071FE002840F03E82D8
:10556000DDE923350DF19408E6E7059BA3EB0A0678
:10557000002E7FF764AD102E239ADFF8F4B129DDF9
:1055800058462946A34619EE105A1023044604E053
:10559000103E102E08F1080818DD01321031072ADC
:1055A000CDE92321C8E90043F2DD22AA2946484675
:1055B00003F044FE002840F01082103E102EDDE97A
:1055C00023210DF194084FF01003E6DC23460D462D
:1055D0005C469B4601323544072ACDE92325C8F8AD
:1055E00000B0C8F8046000F33784039B069A9E1A43
:1055F000002E08F108087FF728AD102E239ADFF857
:1056000070B129DD58462946A34619EE105A1023D9
:10561000044604E0103E102E08F1080818DD01329F
:105620001031072ACDE92321C8E90043F2DD22AA7F
:105630002946484603F002FE002840F0CE81103E85
:10564000102EDDE923210DF194084FF01003E6DC64
:1056500023460D465C469B4601323544072ACDE978
:105660002325C8F800B0C8F8046000F3178208F1D9
:105670000808EAE419EE101A22AA484603F0DEFDF3
:1056800000283FF408AD19EE10BAA7E1239B119949
:10569000C8F800101099C8F8041001330D44072B06
:1056A0002495239300F3D28508F10808002AC0F25C
:1056B000C7870C9A01331544072BCDE92335C8E978
:1056C00000727FF7D3AC19EE101A22AA484603F0F5
:1056D000B5FD0028D7D1249D0DF19408C8E40C9B9A
:1056E000239C012B40F39281013401350123072CC7
:1056F000CDE92345C8F80070C8F8043000F3F18301
:1057000008F10808109B119A01341D44072CCDE9BB
:105710002345C8E9002300F3F28308F108080023B9
:10572000DDE90E010022FEF7CFFA0C9B002840F0C5
:105730008B81013B013401371D44072CCDE9234502
:10574000C8F80070C8F8043000F3708108F1080848
:10575000149A013415441EAB072CCDE92345C8E942
:1057600000327FF783ACAEE760C2000890C2000849
:10577000A4C20008012B029D7FF405AEBBF1000F0F
:1057800008BFBAF10A0F80F0F6820AF1300A01234D
:105790008DF837A1029506930DF237170BE6102E00
:1057A000DDE9232129DD1793102543460846B84635
:1057B000274619EE104A04E0103E102E03F10803AC
:1057C00016DD0132C4491030072ACDE92320C3E990
:1057D0000015F1DD22AA2146484603F02FFD0028DE
:1057E00040F0B483103E102EDDE9232025ABE8DC29
:1057F0003C4647469846179B01460132B648C8F8D2
:1058000000007518072ACDE92325C8F8046000F3C5
:105810008B839DF86B2008F10808FFF7EDBB19EEAC
:10582000101A22AA4846179303F008FD00287FF4B7
:105830002AAF249D179B0DF19408FFF7EDBB19EEDD
:10584000101A22AA484603F0F9FC00287FF41BAF87
:10585000249D0DF19408FFF7EEBB102C239B20DD57
:1058600019EE107A102604E0103C102C08F10808FC
:1058700017DD0133984A1035072BCDE92335C8E9E8
:105880000026F1DD22AA3946484603F0D7FC00285D
:1058900040F07883103C102CDDE923350DF194089D
:1058A000E7DC01338C4AC8F800202544072BCDE9FA
:1058B0002335C8F804407FF7E4AB19EE101A22AA8A
:1058C000484603F0BBFC00287FF4DDAE249DFFF7C3
:1058D000D8BB1C9A002A40F32681DDE90B329342A3
:1058E000A8BF1346002B1C460DDD239BC8F8007093
:1058F00001332544072B2495C8F80440239300F373
:10590000D98508F108080B9B002CA8BF1B1B002B96
:105910001C4600F355830B9B3B449B46029B590559
:1059200000F104851C9B0C9A934203DB029AD20778
:1059300040F1CF83239A1199C8F800101099C8F844
:10594000041001320D44072A2495239200F3E985BF
:1059500008F108080C9ABC18A4EB0B04D31A9C425B
:10596000A8BF1C46002C0DDD239AC8F800B00132F8
:105970002544072A2495C8F80440239200F32E8674
:1059800008F10808002CACBF1C1B1C46002C7FF73C
:105990006FAB102C239BDFF844B140F3F6825F46D7
:1059A000102619EE10BA05E008F10808103C102C7A
:1059B00040F3EA8201331035072BCDE92335C8E9DE
:1059C0000076F1DD22AA5946484603F037FC28B993
:1059D000DDE923350DF19408E8E7AB46079911B1ED
:1059E000484602F049FBDBF8643013F0010FBBF8C6
:1059F0000C3002D1980540F19082590600F11286D0
:105A000004984FB0BDEC068BBDE8F08F029BDE071B
:105A10003FF56AAE013401350123072CCDE923455A
:105A2000C8F80070C8F804307FF790AE19EE101A6D
:105A300022AA484603F002FC00287FF424AEDDE9E8
:105A400023450DF1940883E65E1E002E7FF780AE9D
:105A5000102EDFF888B040F3E382CDF80CA01027B9
:105A600019EE10AA05E008F10808103E102E40F3C8
:105A7000D58201341035072CCDE92345C8E900B79C
:105A8000F1DD22AA5146484603F0D8FB002840F039
:105A9000BA85DDE923450DF19408E6E719EE101A01
:105AA00022AA484603F0CAFB00287FF4ECAD249DEF
:105AB0000DF19408FFF7C9BA089AEE0652F8041BD4
:105AC00008924FF001035ED4680659D51FFA81FA97
:105AD0004FF0000BFFF7CFBB94C20008A4C2000830
:105AE000029BDA0600F13681029B5B0640F1B08230
:105AF000089B53F8042B08931FFA82FA4FF0000B0F
:105B00007EE4029BD8077FF5B3AAF3E4DBF85800E4
